:100000005CC0000082C0000080C000007EC0000014
:100010007CC000007AC0000078C0000076C00000FC
:1000200074C000000C947A0970C000006EC000001B
:100030006CC000006AC0000068C0000066C000001C
:100040000C94420F62C000000C94F9110C942B1216
:100050005CC000005AC0000058C0000056C000003C
:1000600054C0000052C0000000000008000201005F
:100070000003040700000000000000000102040863
:100080001020408001020408102001020408102002
:10009000040404040404040402020202020203032E
:1000A0000303030300000000250028002B000000CC
:1000B0000000240027002A00501211241FBECFEF99
:1000C000D8E0DEBFCDBF11E0A0E0B1E0E8EAF5E2A4
:1000D00002C005900D92A036B107D9F722E0A0E644
:1000E000B1E001C01D92AE3DB207E1F710E0CDE5F1
:1000F000D0E004C02197FE010E94CC12CC35D1077C
:10010000C9F70E94DF090C94D2127ACFCF93DF9304
:10011000882349F0EB0181500E94C70F998388839F
:10012000DF91CF910895FB0111821082F9CF0F93D7
:100130001F938B019C0183E03695279517950795B2
:100140008A95D1F707591E4F462F477021E030E0BE
:10015000F90102C0EE0FFF1F4A95E2F7AF01F80167
:1001600020812423CB010196211102C090E080E080
:100170001F910F9108950F931F938B019C0183E0B2
:1001800036952795179507958A95D1F7677081E081
:1001900090E001C0880F6A95EAF7F801E759FE4F31
:1001A0002081452B31F48095822380831F910F910C
:1001B0000895822BFACFCF92DF92EF92FF92CF93E6
:1001C000DF936B017C0160E08EE0C816D104E1048E
:1001D000F10490F48EE08C0D0E946610E6012196E9
:1001E000AE01C701B601C7DFCE01DF91CF91FF900D
:1001F000EF90DF90CF9008958C2DEECF882341F0C3
:100200008150682F70E090E080E050E040E0B3CF94
:100210000895611102C00C9466106130E1F362E050
:10022000FACF662319F061E00C94A21060E0FCCFD5
:10023000CF93282F8823E1F0CB01BA01CFEFC20F73
:10024000EC2FF0E0EE58FE4F2081213059F4905809
:100250000E945C0D9B01AC016C2F70E090E080E08F
:10026000CF91A2C00E94570D8C2FCF910C94E20F1A
:10027000CF9108950F931F938B019C0183E03695D6
:100280002795179507958A95D1F7005A1E4F462F47
:10029000477021E030E0F90102C0EE0FFF1F4A95E0
:1002A000E2F7AF01F80120812423CB01019621114F
:1002B00002C090E080E01F910F9108950F931F936B
:1002C0008B019C0183E036952795179507958A95B4
:1002D000D1F7677081E090E001C0880F6A95EAF776
:1002E000F801E05AFE4F2081452B31F4809582239E
:1002F00080831F910F910895822BFACF4F925F92C6
:100300006F927F928F929F92AF92BF92CF92DF9225
:10031000EF92FF920F931F93CF93DF934B015C01FA
:1003200029013A01670161E0882D0E946610E4010D
:100330002196AE01C501B401C1DF20E030E0A90182
:10034000C801B6010E94DB0E18168CF4F401EE58B9
:10035000FE4F81E08083C801B6010E945C0D6B01F5
:10036000C301B2010E945C0DA601C40121D0CE01DF
:10037000DF91CF911F910F91FF90EF90DF90CF9081
:10038000BF90AF909F908F907F906F905F904F90B5
:100390000895882341F08150682F70E090E080E05C
:1003A00050E040E08BCF0895862FB9010C94E20F06
:1003B0009C01FC01E859FF4FE491E33061F140F406
:1003C000E13011F1E23021F160E0822F0C94A210B3
:1003D000E730C1F1E83009F441C0E430A9F7809179
:1003E00080008C7F82608093800090918100907E5D
:1003F0009061692B60938100509387004093860041
:100400008091800080621BC084B5806884BDDCCF91
:1004100084B58062FBCF809180008C7F8260809366
:10042000800090918100907E9061692B60938100A3
:10043000509387004093860080918000806880936D
:100440008000C2CF8091B00080688093B00080911E
:10045000B100887F682B6093B100B6CF8091B00067
:100460008062F3CF4F925F926F927F928F929F92B2
:10047000AF92BF92CF92DF92EF92FF920F931F93B2
:10048000CF93DF93CDB7DEB7A1970FB6F894DEBF59
:100490000FBECDBF62E170E080E090E048DE909357
:1004A00053028093520243E050E0BE01685E7F4FEA
:1004B0002DDE688D798D90E080E00E94880D20917E
:1004C00000013091010140910201509103010E940D
:1004D000DF0E2091040130910501409106015091F9
:1004E00007010E94DF0E6E877F87888B998B61E101
:1004F00070E080E090E01BDE90935B0280935A02F4
:1005000043E050E0BE01685E7F4F00DE688D798D6C
:1005100090E080E00E94880D20910801309109014F
:1005200040910A0150910B010E94DF0E20910C01B5
:1005300030910D0140910E0150910F010E94DF0E8C
:100540006A877B878C879D8760E170E080E090E020
:10055000EEDD90934B0280934A0243E050E0BE01EF
:10056000685E7F4FD3DD688D798D90E080E00E94DA
:10057000880D20911001309111014091120150918C
:1005800013010E94DF0E209114013091150140915A
:100590001601509117010E94DF0E6E837F838887BA
:1005A0009987CE0181967C018E01045E1F4F9E01CA
:1005B0002E5E3F4FAE014A5F5F4FBE01665F7F4FC9
:1005C0004397B7D763E170E080E090E0B0DD9093AF
:1005D00063028093620243E050E0BE01685E7F4F99
:1005E00095DD688D798D90E080E00E94880D2091E6
:1005F00018013091190140911A0150911B010E947C
:10060000DF0E20911C0130911D0140911E0150917F
:100610001F010E94DF0E0E940E0C6093BC027093BB
:10062000BD028093BE029093BF026FE070E080E055
:1006300090E07DDD909343028093420243E050E0DE
:10064000BE01685E7F4F62DD688D798D90E080E04D
:100650000E94880D209120013091210140912201BA
:10066000509123010E94DF0E209124013091250139
:1006700040912601509127010E94DF0E0E940E0C2E
:100680006B017C010E940D0C811175C0C701B60180
:100690000E94CA0B81116FC020E030E040E85FE4A7
:1006A000C701B6010E94DF0D4B015C0120E030E084
:1006B000A9010E94EB0C87FF61C0C501B4019058ED
:1006C0000E945C0D7195619571097F8B6E8B6EE058
:1006D00070E080E090E02BDD90933B0280933A0243
:1006E00043E050E0BE01685E7F4F10DD688D798D7C
:1006F00090E080E00E94880D20912801309129012E
:1007000040912A0150912B010E94DF0E20912C0173
:1007100030912D0140912E0150912F010E94DF0E4A
:1007200020913001309131014091320150913301DB
:100730000E94740C4B015C018E869F86A88AB98A40
:100740008091AC02FF24F394811107C081E0909165
:10075000AD02911101C080E0F82EFF8E8091AF02B2
:10076000811111C081E08093AF0284E08093B002D8
:1007700010E000E094C0812C912C5401C501B4011B
:100780000E945C0DA2CF1091B002123009F482C118
:1007900068F4113079F10E891F890130110519F4BF
:1007A000FF2009F478C21092B30298C1133009F403
:1007B00012C2143081F720E030E0A9016091BC0240
:1007C0007091BD028091BE029091BF020E94EB0C1D
:1007D000882329F08E899F89892B09F07FC1F11028
:1007E0007DC11092C0021092C1021092C2021092FA
:1007F000C302BECF0E891F890430110511F4FF20FA
:1008000049F01092B10282E08093B00283E08093BD
:10081000B202B0C1CA88DB88EC88FD888091B10241
:100820008130F9F0823009F4E3C02BEA3AEA4AEA6F
:100830005EE3C701B6010E94DB0E18160CF0A9C0DA
:1008400020E030E0A9016091BC027091BD0280916E
:10085000BE029091BF020E94EB0C882309F4E0C015
:1008600098C08090BC029090BD02A090BE02B09053
:10087000BF022BEA3AEA4AEA5EE3C701B6010E94E8
:10088000EB0C20E030E0A90187FF7AC0C501B4017C
:100890000E94EB0C81117AC082E08093B102198230
:1008A0001A821B821C821D82FE01E00FF11F81E073
:1008B0008183698183E0B5DC6A8184E0B2DC6B818D
:1008C00085E0AFDC6C8186E0ACDC6D8187E0A9DC83
:1008D0006AE070E080E090E0CDDC9093AB02809322
:1008E000AA022091C0023091C1024091C2025091EF
:1008F000C302609138017091390180913A01909161
:100900003B010E94DF0E209134013091350140916E
:10091000360150913701E8D781D76B017C017DD733
:100920008111E4C1C701B60135D78111DFC120E0D3
:1009300030E040E85FE4C701B6010E94DF0D4B01E3
:100940005C0120E030E0A9010E94EB0C87FFD1C1DF
:10095000C501B40190580E945C0D909580957095EA
:1009600061957F4F8F4F9F4F6F3F710581059105B7
:1009700011F00CF0C2C197FFC4C170E060E0C1C1CA
:10098000C501B4010E94EB0C882361F083E08093E1
:10099000B1021092C0021092C1021092C2021092D3
:1009A000C3027DCF20E030E040EC5FE36091430183
:1009B0007091440180914501909146010E94DF0EA3
:1009C0004B015C012BEA3AEA4AEA5EE3C701B60151
:1009D0008AD79B01AC01C501B4010E94DF0E609370
:1009E000C0027093C1028093C2029093C30257CF9A
:1009F0002BEA3AEA4AEA5EE3C701B6010E94DB0E3F
:100A0000181684F420E030E0A9016091BC027091D6
:100A1000BD028091BE029091BF02DDD7811102C05C
:100A200081E03BCFA501940160914701709148019D
:100A30008091490190914A010E94DB0E18160CF436
:100A4000A5CF20E030E0A9016091BC027091BD0209
:100A50008091BE029091BF02BED7811197CF809046
:100A6000430190904401A0904501B0904601B7FA2F
:100A7000B094B7F8B09420E030E040E450E4C7010F
:100A8000B6010E94DF0E9B01AC0160E070E080E8DF
:100A90009FE39ECF4A885B886C887D880E891F897A
:100AA0002BEA3AEA4AEA5EE3C301B2010E94DB0E96
:100AB00018165CF40430110541F4F11006C01092D0
:100AC000B20281E08093B002E8CE035011090230F7
:100AD000110510F4FF2031F01092B20283E08093F0
:100AE000B002D6C0C090BC02D090BD02E090BE0261
:100AF000F090BF028091B202813001F1823009F49E
:100B00003CC011E020E030E0A901C701B60163D785
:100B1000811110E01D8F20E030E0A901C701B6016E
:100B20005AD781114FC020E030E040EA50E4C501BF
:100B3000B40151D787FF32C082E069CE20E030E0B7
:100B4000A901C701B60147D7811160CEA301920167
:100B5000609143017091440180914501909146015B
:100B60000E94DF0E6093C0027093C1028093C202A4
:100B70009093C30203E010E092CE20E030E0A901A0
:100B8000C301B2010E94DB0E20E030E0A90118167B
:100B90003CF4C701B6011FD7811138CE81E037CEB2
:100BA000C701B60118D7811131CE80E090E0A0EAEC
:100BB000B0E48093C0029093C102A093C202B093AC
:100BC000C302D8CF1092C0021092C1021092C2028A
:100BD0001092C302CFCF81E08F258D8F20E030E0CF
:100BE000A9016091BC027091BD028091BE029091FA
:100BF000BF02F1D6882309F443C020E030E040EA88
:100C000050ECC501B4010E94DB0E18166CF48E89FD
:100C10009F890397029740F4F11006C082E0809309
:100C2000B0021093B202A6CF20E030E040EA50E4D8
:100C3000C501B401D0D687FF0EC00E891F890130CF
:100C4000110549F4F11007C085E08093B00281E0FE
:100C50008093B30224CEC501B4019F7720E030E039
:100C600040EA50E4B8D687FF0BC00E891F890115F2
:100C7000110531F4F11004C084E08093B0020FCE6E
:100C80001092C0021092C1021092C2021092C302CE
:100C900002E010E004CE6091BC027091BD02809130
:100CA000BE029091BF022091B3022130C1F420E036
:100CB00030E0A90190D6882321F082E08093B3022E
:100CC00068CE60913F017091400180914101909107
:100CD000420190582A893B894C895D897ECE20E06B
:100CE00030E0A90178D6811154CEB1CF812C912C5E
:100CF0005401C501B401E0D637CE6FEF70E080E05B
:100D000090E0072E000C880B990B04D7AB01BC01B7
:100D10008091AA029091AB028BDA6F8D89E081DA23
:100D2000BE01635E7F4FCE014F9680D3AE01425E1F
:100D30005F4FBE01655E7F4FCE01469680D3AE0108
:100D4000405E5F4FBE01665E7F4FCE010E96BCD304
:100D50008C8D81113DC08F8D81113AC08B8D61E0EA
:100D6000811104C08A8D811101C060E088E059DAE8
:100D70008D8D81112FC08E8D81112CC081E098A1A5
:100D8000911101C080E08093AC0261E08091AE02DD
:100D9000811160E06093AE028DE043DA89A1809317
:100DA000AD02A1960FB6F894DEBF0FBECDBFDF91A6
:100DB000CF911F910F91FF90EF90DF90CF90BF9058
:100DC000AF909F908F907F906F905F904F9008951D
:100DD00061E0CCCF81E0D7CF8F929F92AF92BF924C
:100DE000DF92EF92FF920F931F93CF93DF9384E0F4
:100DF00090E099D464EB72E086E891E090D466EBE1
:100E000072E086E891E017D368EB72E086E891E043
:100E100057D36AEB72E086E891E087D3C4E3D2E06F
:100E2000E0E0F1E084AD8093AC0285AD8093AD024B
:100E300086AD8093AE02188E812C912C5401839440
:100E4000898E9A8EAB8EBC8E62E170E080E090E07D
:100E5000B2D99F8F8E8FDD24D394DD8E18A289A204
:100E60009AA2ABA2BCA261E170E080E090E0A3D9BD
:100E70009FA38EA3DDA2188A898A9A8AAB8ABC8A2C
:100E800060E170E080E090E096D99F8B8E8BDD8AE8
:100E900018A689A69AA6ABA6BCA663E170E080E07E
:100EA00090E089D99FA78EA7DDA6188689869A86A5
:100EB000AB86BC866FE070E080E090E07CD99F87D5
:100EC0008E87DD86188289829A82AB82BC826EE030
:100ED00070E080E090E06FD99F838E83DD82109276
:100EE0008C0280928D0290928E02A0928F02B0921C
:100EF000900261E083E08DD9D09291021092840239
:100F00008092850290928602A0928702B092880217
:100F100061E084E07ED9D092890210927C028092B6
:100F20007D0290927E02A0927F02B092800261E0E8
:100F300085E06FD9D092810210927402809275027E
:100F400090927602A0927702B092780261E086E0F9
:100F500060D9D092790218AE89AE9AAEABAEBCAE73
:100F600061E087E056D9DDAE1092A4028092A5021E
:100F70009092A602A092A702B092A802E12CF12CB6
:100F80008701A80197016AE070E080E090E0B6D99F
:100F90009093AB028093AA02D092A902109294027D
:100FA0008092950290929602A0929702B092980237
:100FB00061E089E02ED9D092990210929C02809231
:100FC0009D0290929E02A0929F02B092A00261E0C8
:100FD00088E01FD9D092A10218AA89AA9AAAABAA1E
:100FE000BCAA61E08DE015D9DDAADF91CF911F91F8
:100FF0000F91FF90EF90DF90BF90AF909F908F90F8
:10100000089580914C0281111DC081E080934C02B3
:1010100080914D0290914E02A0914F02B0915002EA
:101020000197A105B10571F480915102882351F017
:1010300062E170E080E090E07AD890935302809370
:101040005202DCD88091540281111DC081E080934E
:1010500054028091550290915602A0915702B0918E
:1010600058020197A105B10571F4809159028823B6
:1010700051F061E170E080E090E059D890935B021C
:1010800080935A02BBD88091440281111DC081E037
:10109000809344028091450290914602A0914702BC
:1010A000B09148020197A105B10571F48091490200
:1010B000882351F060E170E080E090E038D89093B0
:1010C0004B0280934A029AD880915C0281111DC024
:1010D00081E080935C0280915D0290915E02A0911C
:1010E0005F02B09160020197A105B10571F4809192
:1010F0006102882351F063E170E080E090E017D84E
:10110000909363028093620279D880913C028111AE
:101110001EC081E080933C0280913D0290913E028E
:10112000A0913F02B09140020197A105B10579F469
:1011300080914102882359F06FE070E080E090E0F8
:101140000E949700909343028093420257D8809167
:10115000340281111EC081E08093340280913502F7
:1011600090913602A0913702B09138020197A10503
:10117000B10579F480913902882359F06EE070E06E
:1011800080E090E00E94970090933B0280933A02A7
:1011900035D880918C02811103C081E080938C024C
:1011A00080918402811103C081E080938402809148
:1011B0007C02811103C081E080937C0280917402E3
:1011C000811103C081E08093740280916C028111CF
:1011D00003C081E080936C028091A40281112AC037
:1011E00081E08093A4028091A5029091A602A09133
:1011F000A702B091A8020197A105B105D9F4809189
:10120000A9028823B9F06AE070E080E090E032D86B
:101210009093AB028093AA0240E050E0BA0108D854
:101220006AE070E080E090E025D89093AB02809374
:10123000AA02AFD880919402811103C081E080930B
:10124000940280919C02811103C081E080939C02F2
:1012500080916402811103C081E08093640208954B
:1012600026E030E040E855E260E070E090E080E0A9
:1012700000C0109289011092880189309105F0F424
:101280008B5B964FFC010C94CC124E0958095F09F8
:101290006209650968096B096E09740981E090E0CB
:1012A000909389018093880187E991E00C949911CA
:1012B00082E090E09093890180938801089584E012
:1012C00090E0F8CF88E090E0F5CF80E190E0F2CFB9
:1012D00080E290E0EFCF80E490E0ECCF80E890E017
:1012E0009093890180938801809188019091890170
:1012F0009160E0CF1F920F920FB60F9211242F939F
:101300003F934F935F936F937F938F939F93AF938D
:10131000BF93EF93FF9386E08093B20080918A01A0
:101320008F5F80938A01893119F410928A012FD03E
:10133000FF91EF91BF91AF919F918F917F916F91AD
:101340005F914F913F912F910F900FBE0F901F9083
:10135000189586E08093B200A0E7B0E08C918E7F74
:101360008C93E0EBF0E080818C7F8083E1EBF0E018
:101370008081877F808380818660808380818E7F6B
:1013800080838C9181608C93089581E00895809191
:101390008B0191E0980F90938B01882349F021E015
:1013A00030E030938D0120938C0180938B01089560
:1013B000789458D8F89480918B018150F6CFCF93D0
:1013C000DF931092C5021092C402A6D549DFC091E6
:1013D0004C01D0914D0119821882FEDCF894B9DFDE
:1013E00081E028813981232B09F080E08093C402B9
:1013F000789478948091C402811107C002DEF89439
:1014000090E080E0DF91CF91089581E028813981DB
:10141000232B09F480E08093C5029091C50281E0FE
:10142000911180E08093C402B0DFE4CFFC01108210
:10143000FB0110820895FB01918380830895CF936F
:10144000DF9300D000D01F92CDB7DEB7FB01108232
:10145000FA011082FC018081918121E0009709F05E
:1014600020E0298321E08130910509F020E02A83E2
:1014700021E08230910509F020E02B8321E08330C8
:10148000910509F020E02C8321E0049709F020E089
:101490002D83FE013196CE0106962191211108C0BF
:1014A000E817F907D1F781E0FB018083FA01808317
:1014B0000F900F900F900F900F90DF91CF910895A4
:1014C000FB01918380830895CF92DF92EF92FF9288
:1014D0000F931F93CF93DF938B01EA01FB011082DF
:1014E0001882FC01C080D180E280F38020E030E0EF
:1014F00040E753E4C701B6015ED418164CF020E073
:1015000030E040E752ECC701B60165D287FF04C066
:1015100081E0F80180838883DF91CF911F910F9143
:10152000FF90EF90DF90CF900895FB01918380832F
:1015300008952F923F924F925F926F927F928F9277
:101540009F92AF92BF92CF92DF92EF92FF920F9352
:101550001F93CF93DF93CDB7DEB728970FB6F894DC
:10156000DEBF0FBECDBF9A8389837C836B831A0154
:1015700038872F83FE82ED82F8011082F7011082F6
:10158000FC0180809180A280B380FB01408051806B
:1015900062807380A3019201C501B401A4D19F7739
:1015A0002DEC3CEC4CEC5CE306D4F101C080D18026
:1015B000E280F380A701960118160CF08AC0C301DF
:1015C000B20191D12B013C01E89477F8A701960173
:1015D000C501B40188D19F772DEC3CEC4CEC5CE369
:1015E000EAD32DEC3CEC4CEC5CE318160CF045C057
:1015F000C301B201E0D318162CF581E0F801808315
:10160000ED81FE818083EF81F88510821182128244
:10161000138228960FB6F894DEBF0FBECDBFDF91C0
:10162000CF911F910F91FF90EF90DF90CF90BF90DF
:10163000AF909F908F907F906F905F904F903F9072
:101640002F90089581E0F8018083F101208131819C
:1016500042815381EB81FC81608171818281938120
:1016600043D120E030E040E05FE3A9D3EF81F8858B
:101670006083718382839383CCCFC301B2019BD3F8
:1016800018165CF481E0F8018083F101208131813A
:1016900042815381E981FA81DFCF81E0F8018083C3
:1016A000EB81FC812081318142815381E981FA8182
:1016B000608171818281938117D1F1012081318113
:1016C0004281538111D120E030E040E450E487D1E1
:1016D000CDCFC501B40107D19F772DEC3CEC4CEC8C
:1016E0005CE369D318169CF4A7019601C301B2010B
:1016F000FAD09F772DEC3CEC4CEC5CE35CD31816F5
:1017000034F481E0F8018083EB81FC81BFCFA30139
:101710009201C501B401E8D0A7019601D3CFFB0126
:10172000918380830895D5D06093D2027093D302C1
:101730008093D4029093D502D1D06093C602709367
:10174000C7028093C8029093C902AFD06093CE02C3
:101750007093CF028093D0029093D102ABD060936C
:10176000CA027093CB028093CC029093CD02A7D093
:101770006093D6027093D7028093D8029093D902D7
:10178000A3D06093DA027093DB028093DC02909323
:10179000DD020895CF92DF92EF92FF92CF936B011B
:1017A0007C01AC019B016091CE027091CF028091CF
:1017B000D0029091D1020FD1C1E0882369F0A70136
:1017C00096016091D6027091D7028091D8029091D3
:1017D000D90201D18111C0E08C2FCF91FF90EF9001
:1017E000DF90CF9008950F931F938B019C010027EA
:1017F000112720783F770115110520483F4749F40C
:10180000AB01BC016F77772781E0452B462B472B37
:1018100009F480E01F910F910895E5CFCF92DF92F8
:10182000EF92FF926B017C019F7720E030E040E86F
:1018300059E5D1D087FF26C020E030E040E05FE3EB
:10184000C701B601B8D287FD0CC020E030E040E00F
:101850005FE3C701B60148D0FF90EF90DF90CF90D3
:1018600094C120E030E040E05FEBC701B601A3D2B5
:1018700018167CF420E030E0A901C701B6019FD220
:101880006B017C01C701B601FF90EF90DF90CF9014
:10189000089520E030E040E05FE3C701B60123D0C7
:1018A000FF90EF90DF90CF9083C060E070E080E821
:1018B0009FE7089560E070E080E89FE7089560E0AA
:1018C00070E080E89FEF089560E070E080E89FEFAF
:1018D000089560E070E080EC9FEF089560E070E0B4
:1018E00080EC9FEF08955058BB27AA270ED012C254
:1018F00003D230F008D220F031F49F3F11F41EF4EF
:10190000F8C10EF4E095E7FBC5C1E92F14D280F3CE
:10191000BA17620773078407950718F071F49EF5EC
:1019200043C20EF4E0950B2EBA2FA02D0B01B90186
:1019300090010C01CA01A0011124FF27591B99F045
:10194000593F50F4503E68F11A16F040A22F232F51
:10195000342F4427585FF3CF469537952795A795A1
:10196000F0405395C9F77EF41F16BA0B620B730B48
:10197000840BBAF09150A1F0FF0FBB1F661F771FB9
:10198000881FC2F70EC0BA0F621F731F841F48F46E
:10199000879577956795B795F7959E3F08F0B3CFF4
:1019A0009395880F08F09927EE0F979587950895DE
:1019B000E4D180F09F3740F491110EF4F6C160E05D
:1019C00070E080E89FE3089526F01B16611D711DED
:1019D000811D66C180C13AD108F481E008950CD020
:1019E00099C191D140F088D130F021F45F3F19F0D6
:1019F00051C15111DAC17DC19ED198F39923C9F328
:101A00005523B1F3951B550BBB27AA276217730704
:101A1000840738F09F5F5F4F220F331F441FAA1FB8
:101A2000A9F333D00E2E3AF0E0E830D09150504078
:101A3000E695001CCAF729D0FE2F27D0660F771F26
:101A4000881FBB1F261737074807AB07B0E809F008
:101A5000BB0B802DBF01FF2793585F4F2AF09E3F9D
:101A6000510568F017C1A1C15F3FECF3983EDCF36C
:101A7000869577956795B795F7959F5FC9F7880F16
:101A8000911D9695879597F90895E1E0660F771F68
:101A9000881FBB1F621773078407BA0720F0621BF9
:101AA000730B840BBA0BEE1F88F7E095089504D0F2
:101AB0006894B1117AC1089546D188F09F5790F08B
:101AC000B92F9927B751A0F0D1F0660F771F881F63
:101AD000991F1AF0BA95C9F712C0B13081F064D1DC
:101AE000B1E0089561C1672F782F8827B85F39F07A
:101AF000B93FCCF3869577956795B395D9F73EF4C2
:101B000090958095709561957F4F8F4F9F4F089569
:101B1000E89409C097FB3EF4909580957095619587
:101B20007F4F8F4F9F4F9923A9F0F92F96E9BB273D
:101B30009395F695879577956795B795F111F8CFB9
:101B4000FAF4BB0F11F460FF1BC06F5F7F4F8F4F24
:101B50009F4F16C0882311F096E911C0772321F01A
:101B60009EE8872F762F05C0662371F096E8862FB2
:101B700070E060E02AF09A95660F771F881FDAF709
:101B8000880F9695879597F90895F7D080F09F373D
:101B900040F491110EF009C160E070E080E89FEB25
:101BA000089526F41B16611D711D811D79C093C017
:101BB000A3D018F011F0A7D038F49BC0F6C0E92FDD
:101BC000BAD0B0F35523C9F3E7FB62177307840754
:101BD0009507A8F199F3E92FFF2788232AF0319779
:101BE000660F771F881FDAF7952F5527442332F0A9
:101BF00091505040220F331F441FD2F7BB27E91BDF
:101C0000F50B621B730B840BB109C1F222F4620F56
:101C1000731F841FB11D31972AF0660F771F881F2D
:101C2000BB1FEFCF915050405AF041F0882332F063
:101C3000660F771F881F91505040C1F793954BC096
:101C40008695779567959F5FD9F7F8CF990F00082C
:101C5000550FAA0BE0E8FEEF16161706E807F9077E
:101C6000C0F012161306E407F50798F0621B730B19
:101C7000840B950B39F40A2661F0232B242B252B9A
:101C800021F408950A2609F4A140A6958FEF811D3D
:101C9000811D089597F99F6780E870E060E00895DE
:101CA000882371F4772321F09850872B762F07C073
:101CB000662311F499270DC09051862B70E060E0E7
:101CC0002AF09A95660F771F881FDAF7880F969586
:101CD000879597F908959F3F31F0915020F48795AB
:101CE00077956795B795880F911D9695879597F984
:101CF00008959FEF80EC089500240A9416161706A5
:101D000018060906089500240A94121613061406EC
:101D100005060895092E0394000C11F4882352F04F
:101D2000BB0F40F4BF2B11F460FF04C06F5F7F4F07
:101D30008F4F9F4F089557FD9058440F551F59F0EE
:101D40005F3F71F04795880F97FB991F61F09F3FA8
:101D500079F087950895121613061406551FF2CFD1
:101D60004695F1DF08C0161617061806991FF1CF21
:101D700086957105610508940895E5DFA0F0BEE73A
:101D8000B91788F4BB279F3860F41616B11D672F6A
:101D9000782F8827985FF7CF869577956795B11D3F
:101DA00093959639C8F30895E894BB27662777275B
:101DB000CB0197F908954ADF08F48FEF08950BD00F
:101DC000A9CF9ADF28F09FDF18F0952309F062CFA2
:101DD00090CF1124EACFAFDFA0F3959FD1F3950FF9
:101DE00050E0551F629FF001729FBB27F00DB11D9F
:101DF000639FAA27F00DB11DAA1F649F6627B00D2F
:101E0000A11D661F829F2227B00DA11D621F739F17
:101E1000B00DA11D621F839FA00D611D221F749F25
:101E20003327A00D611D231F849F600D211D822F6C
:101E3000762F6A2F11249F5750408AF0E1F08823B3
:101E40004AF0EE0FFF1FBB1F661F771F881F9150C0
:101E50005040A9F79E3F510570F01CCFA6CF5F3FC1
:101E6000ECF3983EDCF3869577956795B795F795F3
:101E7000E7959F5FC1F7FE2B880F911D969587957B
:101E800097F908951F920F920FB60F9211242F9376
:101E90003F938F939F93AF93BF9380918F019091C6
:101EA0009001A0919101B091920130918E0123E0B7
:101EB000230F2D3758F50196A11DB11D20938E01DA
:101EC00080938F0190939001A0939101B093920120
:101ED0008091930190919401A0919501B091960108
:101EE0000196A11DB11D8093930190939401A0933D
:101EF0009501B0939601BF91AF919F918F913F91C2
:101F00002F910F900FBE0F901F90189526E8230F6A
:101F10000296A11DB11DD2CF789484B5826084BD94
:101F200084B5816084BD85B5826085BD85B58160DD
:101F300085BDEEE6F0E0808181608083E1E8F0E03D
:101F40001082808182608083808181608083E0E86C
:101F5000F0E0808181608083E1EBF0E0808184604B
:101F60008083E0EBF0E0808181608083EAE7F0E04D
:101F700080818460808380818260808380818160B1
:101F800080838081806880831092C10008958E30A4
:101F900008F08E5020914B0190E4299F900111246C
:101FA0008770822B80937C0080917A00806480937C
:101FB0007A0080917A0086FDFCCF80917800909124
:101FC000790008951F93CF93DF93182FEB0161E001
:101FD0007DD0209731F460E0812FDF91CF911F9168
:101FE000B1C0CF3FD10511F461E0F6CFE12FF0E0B1
:101FF000E859FF4FE491E33031F140F4E130B1F0C2
:10200000E230E1F0C038D1057CF7E5CFE73029F1C7
:10201000E83059F1E430B1F780918000806280931C
:102020008000D0938B00C0938A0004C084B5806880
:1020300084BDC7BDDF91CF911F91089584B58062A3
:1020400084BDC8BDF7CF80918000806880938000F8
:10205000D0938900C0938800EDCF8091B000806854
:102060008093B000C093B300E5CF8091B000806250
:102070008093B000C093B400DDCF833081F028F4AA
:10208000813099F08230A9F008958730A9F0883026
:10209000C9F08430B1F4809180008F7D03C08091BD
:1020A00080008F7780938000089584B58F7784BDFA
:1020B000089584B58F7DFBCF8091B0008F7780939A
:1020C000B00008958091B0008F7DF9CFCF93DF935A
:1020D00090E0FC01E458FF4F249180579F4FFC0192
:1020E00084918823C9F090E0880F991FFC01E25584
:1020F000FF4FA591B491FC01EC55FF4FC591D491D0
:1021000061110DC09FB7F8948C91209582238C9318
:102110008881282328839FBFDF91CF910895623063
:1021200051F49FB7F8943C91822F809583238C9330
:10213000E8812E2BEFCF8FB7F894EC912E2B2C93B8
:102140008FBFEACF1F93CF93DF93282F30E0F901A1
:10215000E859FF4F8491F901E458FF4FD491F901F8
:10216000E057FF4FC491CC23A1F0162F811185DFDA
:10217000EC2FF0E0EE0FFF1FEC55FF4FA591B4914F
:102180008FB7F894EC91111108C0D095DE23DC9341
:102190008FBFDF91CF911F910895DE2BF8CFFC0107
:1021A000918D228D892F90E0805C9F4F821B910939
:1021B0008F7399270895FC01918D828D981731F0C6
:1021C000828DE80FF11D858D90E008958FEF9FEFD0
:1021D0000895FC01918D828D981761F0A28DAE0F4C
:1021E000BF2FB11D5D968C91928D9F5F9F73928FD3
:1021F00090E008958FEF9FEF0895FC01538D448D7B
:10220000252F30E0842F90E0821B930B541710F0A1
:10221000CF96089501970895FC01A48DA80FB92FBA
:10222000B11DA35ABF4F2C91848D90E001968F73FE
:102230009927848FA689B7892C93A089B1898C911D
:10224000837080648C93938D848D981306C002886C
:10225000F389E02D80818F7D80830895CF93DF9374
:10226000EC01888D8823B1F0AA89BB89E889F989B6
:102270008C9185FD03C0808186FD0CC00FB607FCE4
:10228000F7CF8C9185FFF2CF808185FFEDCFCE0116
:10229000C3DFEACFDF91CF910895EF92FF920F93C2
:1022A0001F93CF93DF93EC0181E0888F9B8D8C8D02
:1022B00098131AC0E889F989808185FF15C09FB7F6
:1022C000F894EE89FF896083E889F98980818370B9
:1022D000806480839FBF81E090E0DF91CF911F9168
:1022E0000F91FF90EF900895F62E0B8D10E00F5F89
:1022F0001F4F0F731127E02E8C8D8E110BC00FB660
:1023000007FCFACFE889F989808185FFF5CFCE01F6
:1023100083DFF2CFEB8DEC0FFD2FF11DE35AFF4F62
:10232000F0829FB7F8940B8FEA89FB8980818062E5
:10233000D0CFCF92DF92EF92FF921F93CF93DF9394
:10234000EC016A017B01122FE889F98982E0808320
:10235000C11481EED806E104F10499F060E079E05F
:102360008DE390E0A7019601F5D021503109410994
:1023700051095695479537952795211580E13807DE
:1023800090F0E889F989108260E874E88EE190E0C5
:10239000A7019601DFD02150310941095109569515
:1023A000479537952795EC85FD853083EE85FF852C
:1023B0002083188EEC89FD891083EA89FB8980814E
:1023C00080618083EA89FB89808188608083EA89D3
:1023D000FB89808180688083EA89FB8980818F7D89
:1023E0008083DF91CF911F91FF90EF90DF90CF908E
:1023F00008951F920F920FB60F9211242F938F936F
:102400009F93EF93FF93E091A701F091A801808142
:10241000E091AD01F091AE0182FD1BC090818091F1
:10242000B0018F5F8F732091B101821741F0E0916D
:10243000B001F0E0E956FE4F958F8093B001FF9117
:10244000EF919F918F912F910F900FBE0F901F9042
:1024500018958081F4CF1F920F920FB60F9211241E
:102460002F933F934F935F936F937F938F939F939C
:10247000AF93BF93EF93FF9387E991E0CDDEFF9198
:10248000EF91BF91AF919F918F917F916F915F91EC
:102490004F913F912F910F900FBE0F901F90189565
:1024A000E7E9F1E01382128288EE93E0A0E0B0E069
:1024B00084839583A683B78382E591E091838083AB
:1024C00085EC90E09587848784EC90E097878687F9
:1024D00080EC90E0918B808B81EC90E0938B828BF1
:1024E00082EC90E0958B848B86EC90E0978B868BCA
:1024F000118E128E138E148E0895AF92BF92CF92CA
:10250000DF92EF92FF920F931F93CF93DF936C01B3
:102510007B018B01040F151FEB015E01AE18BF0894
:10252000C017D10759F06991D601ED91FC91019046
:10253000F081E02DC6010995892B79F7C501DF915E
:10254000CF911F910F91FF90EF90DF90CF90BF90B0
:10255000AF900895A1E21A2EAA1BBB1BFD010DC06E
:10256000AA1FBB1FEE1FFF1FA217B307E407F50743
:1025700020F0A21BB30BE40BF50B661F771F881F1F
:10258000991F1A9469F760957095809590959B01B5
:10259000AC01BD01CF010895EE0FFF1F0590F4912E
:0825A000E02D0994F894FFCF2F
:1025A8000A28A03BCDCC4C3E0A28A03BCDCC4C3EC3
:1025B8000A28A03BCDCC4C3E0A28A03BCDCC4C3EB3
:1025C8000A28A03BCDCC4C3F0A28A03B0000704213
:1025D800000070C20000FF420000CC3F0000000075
:1025E8000020420000A0420000003F0186010000D8
:1025F80000004D117D12FD102E11CF10E910DB10D7
:00000001FF
